{
  "_format": "hh-sol-artifact-1",
  "contractName": "JayToken",
  "sourceName": "contracts/ManualJayToken.sol",
  "abi": [
    {
      "inputs": [
        {
          "internalType": "string",
          "name": "tokename",
          "type": "string"
        },
        {
          "internalType": "string",
          "name": "tokensymbol",
          "type": "string"
        },
        {
          "internalType": "uint8",
          "name": "decimals",
          "type": "uint8"
        },
        {
          "internalType": "uint256",
          "name": "totalsupply",
          "type": "uint256"
        }
      ],
      "stateMutability": "nonpayable",
      "type": "constructor"
    },
    {
      "inputs": [],
      "name": "TransferError",
      "type": "error"
    },
    {
      "anonymous": false,
      "inputs": [
        {
          "indexed": false,
          "internalType": "uint256",
          "name": "amount",
          "type": "uint256"
        },
        {
          "indexed": false,
          "internalType": "address",
          "name": "owner",
          "type": "address"
        }
      ],
      "name": "Burn",
      "type": "event"
    },
    {
      "anonymous": false,
      "inputs": [
        {
          "indexed": false,
          "internalType": "uint256",
          "name": "amount",
          "type": "uint256"
        },
        {
          "indexed": true,
          "internalType": "address",
          "name": "_from",
          "type": "address"
        },
        {
          "indexed": true,
          "internalType": "address",
          "name": "_to",
          "type": "address"
        }
      ],
      "name": "Transfer",
      "type": "event"
    },
    {
      "inputs": [
        {
          "internalType": "address",
          "name": "_spender",
          "type": "address"
        },
        {
          "internalType": "uint256",
          "name": "_value",
          "type": "uint256"
        }
      ],
      "name": "approve",
      "outputs": [
        {
          "internalType": "bool",
          "name": "",
          "type": "bool"
        }
      ],
      "stateMutability": "nonpayable",
      "type": "function"
    },
    {
      "inputs": [],
      "name": "balanceOf",
      "outputs": [
        {
          "internalType": "uint256",
          "name": "",
          "type": "uint256"
        }
      ],
      "stateMutability": "view",
      "type": "function"
    },
    {
      "inputs": [],
      "name": "decimals",
      "outputs": [
        {
          "internalType": "uint8",
          "name": "",
          "type": "uint8"
        }
      ],
      "stateMutability": "view",
      "type": "function"
    },
    {
      "inputs": [],
      "name": "name",
      "outputs": [
        {
          "internalType": "string",
          "name": "",
          "type": "string"
        }
      ],
      "stateMutability": "view",
      "type": "function"
    },
    {
      "inputs": [],
      "name": "symbol",
      "outputs": [
        {
          "internalType": "string",
          "name": "",
          "type": "string"
        }
      ],
      "stateMutability": "view",
      "type": "function"
    },
    {
      "inputs": [],
      "name": "totalSupply",
      "outputs": [
        {
          "internalType": "uint256",
          "name": "",
          "type": "uint256"
        }
      ],
      "stateMutability": "view",
      "type": "function"
    },
    {
      "inputs": [
        {
          "internalType": "address",
          "name": "_to",
          "type": "address"
        },
        {
          "internalType": "uint256",
          "name": "_value",
          "type": "uint256"
        }
      ],
      "name": "transfer",
      "outputs": [
        {
          "internalType": "bool",
          "name": "",
          "type": "bool"
        }
      ],
      "stateMutability": "nonpayable",
      "type": "function"
    },
    {
      "inputs": [
        {
          "internalType": "address",
          "name": "_from",
          "type": "address"
        },
        {
          "internalType": "address",
          "name": "_to",
          "type": "address"
        },
        {
          "internalType": "uint256",
          "name": "_value",
          "type": "uint256"
        }
      ],
      "name": "transferFrom",
      "outputs": [
        {
          "internalType": "bool",
          "name": "",
          "type": "bool"
        }
      ],
      "stateMutability": "nonpayable",
      "type": "function"
    }
  ],
  "bytecode": "0x60c06040523480156200001157600080fd5b50604051620014793803806200147983398181016040528101906200003791906200025b565b83600090805190602001906200004f929190620000ff565b50826001908051906020019062000068929190620000ff565b508160ff1660808160ff1660f81b815250503373ffffffffffffffffffffffffffffffffffffffff1660a08173ffffffffffffffffffffffffffffffffffffffff1660601b8152505080600260003373ffffffffffffffffffffffffffffffffffffffff1673ffffffffffffffffffffffffffffffffffffffff1681526020019081526020016000208190555050505050620004da565b8280546200010d90620003b7565b90600052602060002090601f0160209004810192826200013157600085556200017d565b82601f106200014c57805160ff19168380011785556200017d565b828001600101855582156200017d579182015b828111156200017c5782518255916020019190600101906200015f565b5b5090506200018c919062000190565b5090565b5b80821115620001ab57600081600090555060010162000191565b5090565b6000620001c6620001c08462000334565b6200030b565b905082815260208101848484011115620001e557620001e462000486565b5b620001f284828562000381565b509392505050565b600082601f83011262000212576200021162000481565b5b815162000224848260208601620001af565b91505092915050565b6000815190506200023e81620004a6565b92915050565b6000815190506200025581620004c0565b92915050565b6000806000806080858703121562000278576200027762000490565b5b600085015167ffffffffffffffff8111156200029957620002986200048b565b5b620002a787828801620001fa565b945050602085015167ffffffffffffffff811115620002cb57620002ca6200048b565b5b620002d987828801620001fa565b9350506040620002ec8782880162000244565b9250506060620002ff878288016200022d565b91505092959194509250565b6000620003176200032a565b9050620003258282620003ed565b919050565b6000604051905090565b600067ffffffffffffffff82111562000352576200035162000452565b5b6200035d8262000495565b9050602081019050919050565b6000819050919050565b600060ff82169050919050565b60005b83811015620003a157808201518184015260208101905062000384565b83811115620003b1576000848401525b50505050565b60006002820490506001821680620003d057607f821691505b60208210811415620003e757620003e662000423565b5b50919050565b620003f88262000495565b810181811067ffffffffffffffff821117156200041a576200041962000452565b5b80604052505050565b7f4e487b7100000000000000000000000000000000000000000000000000000000600052602260045260246000fd5b7f4e487b7100000000000000000000000000000000000000000000000000000000600052604160045260246000fd5b600080fd5b600080fd5b600080fd5b600080fd5b6000601f19601f8301169050919050565b620004b1816200036a565b8114620004bd57600080fd5b50565b620004cb8162000374565b8114620004d757600080fd5b50565b60805160f81c60a05160601c610f736200050660003960006102da015260006104a80152610f736000f3fe608060405234801561001057600080fd5b50600436106100885760003560e01c8063313ce5671161005b578063313ce56714610129578063722713f71461014757806395d89b4114610165578063a9059cbb1461018357610088565b806306fdde031461008d578063095ea7b3146100ab57806318160ddd146100db57806323b872dd146100f9575b600080fd5b6100956101b3565b6040516100a29190610c08565b60405180910390f35b6100c560048036038101906100c09190610ade565b610245565b6040516100d29190610bed565b60405180910390f35b6100e36102d2565b6040516100f09190610c8a565b60405180910390f35b610113600480360381019061010e9190610a8b565b610339565b6040516101209190610bed565b60405180910390f35b6101316104a4565b60405161013e9190610ca5565b60405180910390f35b61014f6104cc565b60405161015c9190610c8a565b60405180910390f35b61016d610513565b60405161017a9190610c08565b60405180910390f35b61019d60048036038101906101989190610ade565b6105a5565b6040516101aa9190610bed565b60405180910390f35b6060600080546101c290610dee565b80601f01602080910402602001604051908101604052809291908181526020018280546101ee90610dee565b801561023b5780601f106102105761010080835404028352916020019161023b565b820191906000526020600020905b81548152906001019060200180831161021e57829003601f168201915b5050505050905090565b600081600360003373ffffffffffffffffffffffffffffffffffffffff1673ffffffffffffffffffffffffffffffffffffffff16815260200190815260200160002060008573ffffffffffffffffffffffffffffffffffffffff1673ffffffffffffffffffffffffffffffffffffffff168152602001908152602001600020819055506001905092915050565b6000600260007f000000000000000000000000000000000000000000000000000000000000000073ffffffffffffffffffffffffffffffffffffffff1673ffffffffffffffffffffffffffffffffffffffff16815260200190815260200160002054905090565b6000600360008573ffffffffffffffffffffffffffffffffffffffff1673ffffffffffffffffffffffffffffffffffffffff16815260200190815260200160002060003373ffffffffffffffffffffffffffffffffffffffff1673ffffffffffffffffffffffffffffffffffffffff168152602001908152602001600020548211156103fa576040517f08c379a00000000000000000000000000000000000000000000000000000000081526004016103f190610c2a565b60405180910390fd5b81600360008673ffffffffffffffffffffffffffffffffffffffff1673ffffffffffffffffffffffffffffffffffffffff16815260200190815260200160002060003373ffffffffffffffffffffffffffffffffffffffff1673ffffffffffffffffffffffffffffffffffffffff16815260200190815260200160002060008282546104869190610d32565b925050819055506104988385846105bd565b50600190509392505050565b60007f0000000000000000000000000000000000000000000000000000000000000000905090565b6000600260003373ffffffffffffffffffffffffffffffffffffffff1673ffffffffffffffffffffffffffffffffffffffff16815260200190815260200160002054905090565b60606001805461052290610dee565b80601f016020809104026020016040519081016040528092919081815260200182805461054e90610dee565b801561059b5780601f106105705761010080835404028352916020019161059b565b820191906000526020600020905b81548152906001019060200180831161057e57829003601f168201915b5050505050905090565b60006105b28333846105bd565b506001905092915050565b60008073ffffffffffffffffffffffffffffffffffffffff168373ffffffffffffffffffffffffffffffffffffffff16141580156106285750600073ffffffffffffffffffffffffffffffffffffffff168473ffffffffffffffffffffffffffffffffffffffff1614155b610667576040517f08c379a000000000000000000000000000000000000000000000000000000000815260040161065e90610c6a565b60405180910390fd5b81600260008573ffffffffffffffffffffffffffffffffffffffff1673ffffffffffffffffffffffffffffffffffffffff16815260200190815260200160002054116106e8576040517f08c379a00000000000000000000000000000000000000000000000000000000081526004016106df90610c4a565b60405180910390fd5b600260008573ffffffffffffffffffffffffffffffffffffffff1673ffffffffffffffffffffffffffffffffffffffff1681526020019081526020016000205482600260008773ffffffffffffffffffffffffffffffffffffffff1673ffffffffffffffffffffffffffffffffffffffff168152602001908152602001600020546107739190610cdc565b101561077e57600080fd5b6000600260008673ffffffffffffffffffffffffffffffffffffffff1673ffffffffffffffffffffffffffffffffffffffff16815260200190815260200160002054600260008673ffffffffffffffffffffffffffffffffffffffff1673ffffffffffffffffffffffffffffffffffffffff1681526020019081526020016000205461080a9190610cdc565b905082600260008673ffffffffffffffffffffffffffffffffffffffff1673ffffffffffffffffffffffffffffffffffffffff168152602001908152602001600020546108579190610d32565b600260008673ffffffffffffffffffffffffffffffffffffffff1673ffffffffffffffffffffffffffffffffffffffff1681526020019081526020016000208190555082600260008773ffffffffffffffffffffffffffffffffffffffff1673ffffffffffffffffffffffffffffffffffffffff168152602001908152602001600020546108e59190610cdc565b600260008773ffffffffffffffffffffffffffffffffffffffff1673ffffffffffffffffffffffffffffffffffffffff16815260200190815260200160002081905550600260008673ffffffffffffffffffffffffffffffffffffffff1673ffffffffffffffffffffffffffffffffffffffff16815260200190815260200160002054600260008673ffffffffffffffffffffffffffffffffffffffff1673ffffffffffffffffffffffffffffffffffffffff168152602001908152602001600020546109b29190610cdc565b811415610a28578473ffffffffffffffffffffffffffffffffffffffff168473ffffffffffffffffffffffffffffffffffffffff167f0a429aba3d89849a2db0153e4534d95c46a1d83c8109d73893f55ebc44010ff485604051610a169190610c8a565b60405180910390a36001915050610a5a565b6040517f4ffddc7c00000000000000000000000000000000000000000000000000000000815260040160405180910390fd5b9392505050565b600081359050610a7081610f0f565b92915050565b600081359050610a8581610f26565b92915050565b600080600060608486031215610aa457610aa3610e7e565b5b6000610ab286828701610a61565b9350506020610ac386828701610a61565b9250506040610ad486828701610a76565b9150509250925092565b60008060408385031215610af557610af4610e7e565b5b6000610b0385828601610a61565b9250506020610b1485828601610a76565b9150509250929050565b610b2781610d78565b82525050565b6000610b3882610cc0565b610b428185610ccb565b9350610b52818560208601610dbb565b610b5b81610e83565b840191505092915050565b6000610b73600b83610ccb565b9150610b7e82610e94565b602082019050919050565b6000610b96601183610ccb565b9150610ba182610ebd565b602082019050919050565b6000610bb9601283610ccb565b9150610bc482610ee6565b602082019050919050565b610bd881610da4565b82525050565b610be781610dae565b82525050565b6000602082019050610c026000830184610b1e565b92915050565b60006020820190508181036000830152610c228184610b2d565b905092915050565b60006020820190508181036000830152610c4381610b66565b9050919050565b60006020820190508181036000830152610c6381610b89565b9050919050565b60006020820190508181036000830152610c8381610bac565b9050919050565b6000602082019050610c9f6000830184610bcf565b92915050565b6000602082019050610cba6000830184610bde565b92915050565b600081519050919050565b600082825260208201905092915050565b6000610ce782610da4565b9150610cf283610da4565b9250827fffffffffffffffffffffffffffffffffffffffffffffffffffffffffffffffff03821115610d2757610d26610e20565b5b828201905092915050565b6000610d3d82610da4565b9150610d4883610da4565b925082821015610d5b57610d5a610e20565b5b828203905092915050565b6000610d7182610d84565b9050919050565b60008115159050919050565b600073ffffffffffffffffffffffffffffffffffffffff82169050919050565b6000819050919050565b600060ff82169050919050565b60005b83811015610dd9578082015181840152602081019050610dbe565b83811115610de8576000848401525b50505050565b60006002820490506001821680610e0657607f821691505b60208210811415610e1a57610e19610e4f565b5b50919050565b7f4e487b7100000000000000000000000000000000000000000000000000000000600052601160045260246000fd5b7f4e487b7100000000000000000000000000000000000000000000000000000000600052602260045260246000fd5b600080fd5b6000601f19601f8301169050919050565b7f6e6f7420616c6c6f776564000000000000000000000000000000000000000000600082015250565b7f6e6f7420656e6f75676820746f6b656e73000000000000000000000000000000600082015250565b7f7a65726f2061646472657373206572726f720000000000000000000000000000600082015250565b610f1881610d66565b8114610f2357600080fd5b50565b610f2f81610da4565b8114610f3a57600080fd5b5056fea2646970667358221220363ca5b238c2254f8060e4e2273f9ee7977ded191734b62b20773c96ed11512564736f6c63430008070033",
  "linkReferences": {},
  "deployedLinkReferences": {}
}